{
  "contractName": "AtaraxiaToken",
  "abi": [
    {
      "inputs": [],
      "payable": false,
      "stateMutability": "nonpayable",
      "type": "constructor"
    },
    {
      "constant": true,
      "inputs": [],
      "name": "totalSupply",
      "outputs": [
        {
          "internalType": "uint256",
          "name": "",
          "type": "uint256"
        }
      ],
      "payable": false,
      "stateMutability": "view",
      "type": "function"
    }
  ],
  "bytecode": "0x6080604052348015600f57600080fd5b50620f42406000819055506084806100286000396000f3fe6080604052348015600f57600080fd5b506004361060285760003560e01c806318160ddd14602d575b600080fd5b60336049565b6040518082815260200191505060405180910390f35b6000548156fea265627a7a72315820ff9c5149326c8720e5b6c995538d043de138a1aecd654a77ee4f9a949670778664736f6c63430005100032",
  "source": "// SPDX-License-Identifier: MIT\r\npragma solidity >=0.4.22 <0.9.0;\r\n\r\ncontract AtaraxiaToken {\r\n    uint256 public totalSupply;\r\n\r\n    constructor() public{       \r\n        totalSupply = 1000000;\r\n    }\r\n\r\n    // contract AtaraxiaToken {\r\n    //     string  public name = \"Ataraxia Token\";\r\n    //     string  public symbol = \"ATRT\";\r\n    //     string  public standard = \"Ataraxia Token v1.0\";\r\n    //     uint256 public totalSupply;\r\n\r\n    //     event Transfer(\r\n    //         address indexed _from,\r\n    //         address indexed _to,\r\n    //         uint256 _value\r\n    //     );\r\n\r\n    //     event Approval(\r\n    //         address indexed _owner,\r\n    //         address indexed _spender,\r\n    //         uint256 _value\r\n    //     );\r\n\r\n    //     mapping(address => uint256) public balanceOf;\r\n    //     mapping(address => mapping(address => uint256)) public allowance;\r\n\r\n    //    constructor (uint256 _initialSupply) {\r\n    //         balanceOf[msg.sender] = _initialSupply;\r\n    //         totalSupply = _initialSupply;\r\n    //     }\r\n\r\n    //     function transfer(address _to, uint256 _value) public returns (bool success) {\r\n    //         require(balanceOf[msg.sender] >= _value);\r\n\r\n    //         balanceOf[msg.sender] -= _value;\r\n    //         balanceOf[_to] += _value;\r\n\r\n    //         emit Transfer(msg.sender, _to, _value);\r\n\r\n    //         return true;\r\n    //     }\r\n\r\n    //     function approve(address _spender, uint256 _value) public returns (bool success) {\r\n    //         allowance[msg.sender][_spender] = _value;\r\n\r\n    //         emit Approval(msg.sender, _spender, _value);\r\n\r\n    //         return true;\r\n    //     }\r\n\r\n    //     function transferFrom(address _from, address _to, uint256 _value) public returns (bool success) {\r\n    //         require(_value <= balanceOf[_from]);\r\n    //         require(_value <= allowance[_from][msg.sender]);\r\n\r\n    //         balanceOf[_from] -= _value;\r\n    //         balanceOf[_to] += _value;\r\n\r\n    //         allowance[_from][msg.sender] -= _value;\r\n\r\n    //         emit Transfer(_from, _to, _value);\r\n\r\n    //         return true;\r\n    //     }\r\n}\r\n",
  "sourcePath": "E:/source/SMART-CONTRACTS/ataraxia-coin/src/contracts/AtaraxiaToken.sol",
  "compiler": {
    "name": "solc",
    "version": "0.5.16+commit.9c3226ce.Emscripten.clang"
  },
  "schemaVersion": "3.4.1",
  "updatedAt": "2021-06-28T08:08:45.766Z",
  "networkType": "ethereum",
  "devdoc": {
    "methods": {}
  },
  "userdoc": {
    "methods": {}
  }
}